{
  "_format": "hh-sol-artifact-1",
  "contractName": "AirdropMerkleDistributor",
  "sourceName": "contracts/AirdropMerkleDistributor.sol",
  "abi": [
    {
      "inputs": [
        {
          "internalType": "address",
          "name": "token_",
          "type": "address"
        },
        {
          "internalType": "bytes32",
          "name": "merkleRoot_",
          "type": "bytes32"
        },
        {
          "internalType": "uint256",
          "name": "dropAmount_",
          "type": "uint256"
        }
      ],
      "stateMutability": "nonpayable",
      "type": "constructor"
    },
    {
      "inputs": [
        {
          "internalType": "address",
          "name": "target",
          "type": "address"
        }
      ],
      "name": "AddressEmptyCode",
      "type": "error"
    },
    {
      "inputs": [
        {
          "internalType": "address",
          "name": "account",
          "type": "address"
        }
      ],
      "name": "AddressInsufficientBalance",
      "type": "error"
    },
    {
      "inputs": [],
      "name": "FailedInnerCall",
      "type": "error"
    },
    {
      "inputs": [],
      "name": "InvalidProof",
      "type": "error"
    },
    {
      "inputs": [
        {
          "internalType": "address",
          "name": "token",
          "type": "address"
        }
      ],
      "name": "SafeERC20FailedOperation",
      "type": "error"
    },
    {
      "anonymous": false,
      "inputs": [
        {
          "indexed": true,
          "internalType": "address",
          "name": "account",
          "type": "address"
        },
        {
          "indexed": false,
          "internalType": "uint256",
          "name": "dropAmount",
          "type": "uint256"
        }
      ],
      "name": "Claimed",
      "type": "event"
    },
    {
      "anonymous": false,
      "inputs": [
        {
          "indexed": false,
          "internalType": "address[]",
          "name": "addresses",
          "type": "address[]"
        },
        {
          "indexed": false,
          "internalType": "uint256",
          "name": "amountPerAddress",
          "type": "uint256"
        }
      ],
      "name": "Distributed",
      "type": "event"
    },
    {
      "inputs": [
        {
          "internalType": "bytes32[]",
          "name": "merkleProof",
          "type": "bytes32[]"
        }
      ],
      "name": "claim",
      "outputs": [],
      "stateMutability": "nonpayable",
      "type": "function"
    },
    {
      "inputs": [
        {
          "internalType": "address",
          "name": "",
          "type": "address"
        }
      ],
      "name": "claimed",
      "outputs": [
        {
          "internalType": "bool",
          "name": "",
          "type": "bool"
        }
      ],
      "stateMutability": "view",
      "type": "function"
    },
    {
      "inputs": [
        {
          "internalType": "address[]",
          "name": "addresses",
          "type": "address[]"
        }
      ],
      "name": "distributeTokens",
      "outputs": [],
      "stateMutability": "nonpayable",
      "type": "function"
    },
    {
      "inputs": [],
      "name": "dropAmount",
      "outputs": [
        {
          "internalType": "uint256",
          "name": "",
          "type": "uint256"
        }
      ],
      "stateMutability": "view",
      "type": "function"
    },
    {
      "inputs": [],
      "name": "merkleRoot",
      "outputs": [
        {
          "internalType": "bytes32",
          "name": "",
          "type": "bytes32"
        }
      ],
      "stateMutability": "view",
      "type": "function"
    },
    {
      "inputs": [],
      "name": "token",
      "outputs": [
        {
          "internalType": "address",
          "name": "",
          "type": "address"
        }
      ],
      "stateMutability": "view",
      "type": "function"
    }
  ],
  "bytecode": "0x60c06040523480156200001157600080fd5b506040516200157138038062001571833981810160405281019062000037919062000163565b8273ffffffffffffffffffffffffffffffffffffffff1660808173ffffffffffffffffffffffffffffffffffffffff16815250508160a0818152505080600081905550505050620001bf565b600080fd5b600073ffffffffffffffffffffffffffffffffffffffff82169050919050565b6000620000b58262000088565b9050919050565b620000c781620000a8565b8114620000d357600080fd5b50565b600081519050620000e781620000bc565b92915050565b6000819050919050565b6200010281620000ed565b81146200010e57600080fd5b50565b6000815190506200012281620000f7565b92915050565b6000819050919050565b6200013d8162000128565b81146200014957600080fd5b50565b6000815190506200015d8162000132565b92915050565b6000806000606084860312156200017f576200017e62000083565b5b60006200018f86828701620000d6565b9350506020620001a28682870162000111565b9250506040620001b5868287016200014c565b9150509250925092565b60805160a051611370620002016000396000818161013101526104f3015260008181610157015281816102e7015281816105a701526106fc01526113706000f3fe608060405234801561001057600080fd5b50600436106100625760003560e01c806305748be2146100675780632eb4a7ab1461008557806388951352146100a3578063b391c508146100bf578063c884ef83146100db578063fc0c546a1461010b575b600080fd5b61006f610129565b60405161007c9190610ab3565b60405180910390f35b61008d61012f565b60405161009a9190610ae7565b60405180910390f35b6100bd60048036038101906100b89190610ccd565b610153565b005b6100d960048036038101906100d49190610d71565b6103ef565b005b6100f560048036038101906100f09190610dbe565b6106da565b6040516101029190610e06565b60405180910390f35b6101136106fa565b6040516101209190610e30565b60405180910390f35b60005481565b7f000000000000000000000000000000000000000000000000000000000000000081565b60007f000000000000000000000000000000000000000000000000000000000000000073ffffffffffffffffffffffffffffffffffffffff166370a08231306040518263ffffffff1660e01b81526004016101ae9190610e30565b602060405180830381865afa1580156101cb573d6000803e3d6000fd5b505050506040513d601f19601f820116820180604052508101906101ef9190610e77565b905060006002826102009190610f02565b905060008351826102119190610f02565b905060005b84518110156103af576001600086838151811061023657610235610f33565b5b602002602001015173ffffffffffffffffffffffffffffffffffffffff1673ffffffffffffffffffffffffffffffffffffffff16815260200190815260200160002060009054906101000a900460ff16156102c6576040517f08c379a00000000000000000000000000000000000000000000000000000000081526004016102bd90610fe5565b60405180910390fd5b61032b8582815181106102dc576102db610f33565b5b6020026020010151837f000000000000000000000000000000000000000000000000000000000000000073ffffffffffffffffffffffffffffffffffffffff1661071e9092919063ffffffff16565b600180600087848151811061034357610342610f33565b5b602002602001015173ffffffffffffffffffffffffffffffffffffffff1673ffffffffffffffffffffffffffffffffffffffff16815260200190815260200160002060006101000a81548160ff02191690831515021790555080806103a790611005565b915050610216565b507f1c13dba3da1b8477d60661ae7cf496d243cf0c714ca646b70314b211ee9f3da284826040516103e192919061110b565b60405180910390a150505050565b6000339050600160008273ffffffffffffffffffffffffffffffffffffffff1673ffffffffffffffffffffffffffffffffffffffff16815260200190815260200160002060009054906101000a900460ff1615610481576040517f08c379a000000000000000000000000000000000000000000000000000000000815260040161047890610fe5565b60405180910390fd5b6000816040516020016104949190611183565b604051602081830303815290604052805190602001209050610518848480806020026020016040519081016040528093929190818152602001838360200280828437600081840152601f19601f820116905080830192505050505050507f00000000000000000000000000000000000000000000000000000000000000008361079d565b61054e576040517f09bde33900000000000000000000000000000000000000000000000000000000815260040160405180910390fd5b60018060008473ffffffffffffffffffffffffffffffffffffffff1673ffffffffffffffffffffffffffffffffffffffff16815260200190815260200160002060006101000a81548160ff0219169083151502179055507f000000000000000000000000000000000000000000000000000000000000000073ffffffffffffffffffffffffffffffffffffffff1663a9059cbb836000546040518363ffffffff1660e01b815260040161060292919061119e565b6020604051808303816000875af1158015610621573d6000803e3d6000fd5b505050506040513d601f19601f8201168201806040525081019061064591906111f3565b610684576040517f08c379a000000000000000000000000000000000000000000000000000000000815260040161067b90611292565b60405180910390fd5b8173ffffffffffffffffffffffffffffffffffffffff167fd8138f8a3f377c5259ca548e70e4c2de94f129f5a11036a15b69513cba2b426a6000546040516106cc9190610ab3565b60405180910390a250505050565b60016020528060005260406000206000915054906101000a900460ff1681565b7f000000000000000000000000000000000000000000000000000000000000000081565b610798838473ffffffffffffffffffffffffffffffffffffffff1663a9059cbb858560405160240161075192919061119e565b604051602081830303815290604052915060e01b6020820180517bffffffffffffffffffffffffffffffffffffffffffffffffffffffff83818316178352505050506107b4565b505050565b6000826107aa858461084b565b1490509392505050565b60006107df828473ffffffffffffffffffffffffffffffffffffffff166108a190919063ffffffff16565b9050600081511415801561080457508080602001905181019061080291906111f3565b155b1561084657826040517f5274afe700000000000000000000000000000000000000000000000000000000815260040161083d9190610e30565b60405180910390fd5b505050565b60008082905060005b8451811015610896576108818286838151811061087457610873610f33565b5b60200260200101516108b7565b9150808061088e90611005565b915050610854565b508091505092915050565b60606108af838360006108e2565b905092915050565b60008183106108cf576108ca82846109af565b6108da565b6108d983836109af565b5b905092915050565b60608147101561092957306040517fcd7860590000000000000000000000000000000000000000000000000000000081526004016109209190610e30565b60405180910390fd5b6000808573ffffffffffffffffffffffffffffffffffffffff1684866040516109529190611323565b60006040518083038185875af1925050503d806000811461098f576040519150601f19603f3d011682016040523d82523d6000602084013e610994565b606091505b50915091506109a48683836109c6565b925050509392505050565b600082600052816020526040600020905092915050565b6060826109db576109d682610a55565b610a4d565b60008251148015610a03575060008473ffffffffffffffffffffffffffffffffffffffff163b145b15610a4557836040517f9996b315000000000000000000000000000000000000000000000000000000008152600401610a3c9190610e30565b60405180910390fd5b819050610a4e565b5b9392505050565b600081511115610a685780518082602001fd5b6040517f1425ea4200000000000000000000000000000000000000000000000000000000815260040160405180910390fd5b6000819050919050565b610aad81610a9a565b82525050565b6000602082019050610ac86000830184610aa4565b92915050565b6000819050919050565b610ae181610ace565b82525050565b6000602082019050610afc6000830184610ad8565b92915050565b6000604051905090565b600080fd5b600080fd5b600080fd5b6000601f19601f8301169050919050565b7f4e487b7100000000000000000000000000000000000000000000000000000000600052604160045260246000fd5b610b6482610b1b565b810181811067ffffffffffffffff82111715610b8357610b82610b2c565b5b80604052505050565b6000610b96610b02565b9050610ba28282610b5b565b919050565b600067ffffffffffffffff821115610bc257610bc1610b2c565b5b602082029050602081019050919050565b600080fd5b600073ffffffffffffffffffffffffffffffffffffffff82169050919050565b6000610c0382610bd8565b9050919050565b610c1381610bf8565b8114610c1e57600080fd5b50565b600081359050610c3081610c0a565b92915050565b6000610c49610c4484610ba7565b610b8c565b90508083825260208201905060208402830185811115610c6c57610c6b610bd3565b5b835b81811015610c955780610c818882610c21565b845260208401935050602081019050610c6e565b5050509392505050565b600082601f830112610cb457610cb3610b16565b5b8135610cc4848260208601610c36565b91505092915050565b600060208284031215610ce357610ce2610b0c565b5b600082013567ffffffffffffffff811115610d0157610d00610b11565b5b610d0d84828501610c9f565b91505092915050565b600080fd5b60008083601f840112610d3157610d30610b16565b5b8235905067ffffffffffffffff811115610d4e57610d4d610d16565b5b602083019150836020820283011115610d6a57610d69610bd3565b5b9250929050565b60008060208385031215610d8857610d87610b0c565b5b600083013567ffffffffffffffff811115610da657610da5610b11565b5b610db285828601610d1b565b92509250509250929050565b600060208284031215610dd457610dd3610b0c565b5b6000610de284828501610c21565b91505092915050565b60008115159050919050565b610e0081610deb565b82525050565b6000602082019050610e1b6000830184610df7565b92915050565b610e2a81610bf8565b82525050565b6000602082019050610e456000830184610e21565b92915050565b610e5481610a9a565b8114610e5f57600080fd5b50565b600081519050610e7181610e4b565b92915050565b600060208284031215610e8d57610e8c610b0c565b5b6000610e9b84828501610e62565b91505092915050565b7f4e487b7100000000000000000000000000000000000000000000000000000000600052601260045260246000fd5b7f4e487b7100000000000000000000000000000000000000000000000000000000600052601160045260246000fd5b6000610f0d82610a9a565b9150610f1883610a9a565b925082610f2857610f27610ea4565b5b828204905092915050565b7f4e487b7100000000000000000000000000000000000000000000000000000000600052603260045260246000fd5b600082825260208201905092915050565b7f4d65726b6c654469737472696275746f723a204163636f756e7420616c72656160008201527f647920636c61696d656400000000000000000000000000000000000000000000602082015250565b6000610fcf602a83610f62565b9150610fda82610f73565b604082019050919050565b60006020820190508181036000830152610ffe81610fc2565b9050919050565b600061101082610a9a565b91507fffffffffffffffffffffffffffffffffffffffffffffffffffffffffffffffff820361104257611041610ed3565b5b600182019050919050565b600081519050919050565b600082825260208201905092915050565b6000819050602082019050919050565b61108281610bf8565b82525050565b60006110948383611079565b60208301905092915050565b6000602082019050919050565b60006110b88261104d565b6110c28185611058565b93506110cd83611069565b8060005b838110156110fe5781516110e58882611088565b97506110f0836110a0565b9250506001810190506110d1565b5085935050505092915050565b6000604082019050818103600083015261112581856110ad565b90506111346020830184610aa4565b9392505050565b60008160601b9050919050565b60006111538261113b565b9050919050565b600061116582611148565b9050919050565b61117d61117882610bf8565b61115a565b82525050565b600061118f828461116c565b60148201915081905092915050565b60006040820190506111b36000830185610e21565b6111c06020830184610aa4565b9392505050565b6111d081610deb565b81146111db57600080fd5b50565b6000815190506111ed816111c7565b92915050565b60006020828403121561120957611208610b0c565b5b6000611217848285016111de565b91505092915050565b7f4d65726b6c654469737472696275746f723a205472616e73666572206661696c60008201527f6564000000000000000000000000000000000000000000000000000000000000602082015250565b600061127c602283610f62565b915061128782611220565b604082019050919050565b600060208201905081810360008301526112ab8161126f565b9050919050565b600081519050919050565b600081905092915050565b60005b838110156112e65780820151818401526020810190506112cb565b60008484015250505050565b60006112fd826112b2565b61130781856112bd565b93506113178185602086016112c8565b80840191505092915050565b600061132f82846112f2565b91508190509291505056fea26469706673582212205c4672d5e32cdf4e12ae10d63fed025f9c194e03a94ab8458992e32cdec75bf964736f6c63430008140033",
  "linkReferences": {},
  "deployedLinkReferences": {}
}