{
  "_format": "hh-sol-artifact-1",
  "contractName": "PrivateYieldBearingERC20",
  "sourceName": "contracts/PrivateYieldBearingERC20.sol",
  "abi": [
    {
      "inputs": [
        {
          "internalType": "address",
          "name": "initialOwner",
          "type": "address"
        }
      ],
      "stateMutability": "payable",
      "type": "constructor"
    },
    {
      "inputs": [
        {
          "internalType": "address",
          "name": "spender",
          "type": "address"
        },
        {
          "internalType": "uint256",
          "name": "allowance",
          "type": "uint256"
        },
        {
          "internalType": "uint256",
          "name": "needed",
          "type": "uint256"
        }
      ],
      "name": "ERC20InsufficientAllowance",
      "type": "error"
    },
    {
      "inputs": [
        {
          "internalType": "address",
          "name": "sender",
          "type": "address"
        },
        {
          "internalType": "uint256",
          "name": "balance",
          "type": "uint256"
        },
        {
          "internalType": "uint256",
          "name": "needed",
          "type": "uint256"
        }
      ],
      "name": "ERC20InsufficientBalance",
      "type": "error"
    },
    {
      "inputs": [
        {
          "internalType": "address",
          "name": "approver",
          "type": "address"
        }
      ],
      "name": "ERC20InvalidApprover",
      "type": "error"
    },
    {
      "inputs": [
        {
          "internalType": "address",
          "name": "receiver",
          "type": "address"
        }
      ],
      "name": "ERC20InvalidReceiver",
      "type": "error"
    },
    {
      "inputs": [
        {
          "internalType": "address",
          "name": "sender",
          "type": "address"
        }
      ],
      "name": "ERC20InvalidSender",
      "type": "error"
    },
    {
      "inputs": [
        {
          "internalType": "address",
          "name": "spender",
          "type": "address"
        }
      ],
      "name": "ERC20InvalidSpender",
      "type": "error"
    },
    {
      "inputs": [
        {
          "internalType": "address",
          "name": "owner",
          "type": "address"
        }
      ],
      "name": "OwnableInvalidOwner",
      "type": "error"
    },
    {
      "inputs": [
        {
          "internalType": "address",
          "name": "account",
          "type": "address"
        }
      ],
      "name": "OwnableUnauthorizedAccount",
      "type": "error"
    },
    {
      "anonymous": false,
      "inputs": [
        {
          "indexed": true,
          "internalType": "address",
          "name": "owner",
          "type": "address"
        },
        {
          "indexed": true,
          "internalType": "address",
          "name": "spender",
          "type": "address"
        },
        {
          "indexed": false,
          "internalType": "uint256",
          "name": "value",
          "type": "uint256"
        }
      ],
      "name": "Approval",
      "type": "event"
    },
    {
      "anonymous": false,
      "inputs": [
        {
          "indexed": true,
          "internalType": "address",
          "name": "previousOwner",
          "type": "address"
        },
        {
          "indexed": true,
          "internalType": "address",
          "name": "newOwner",
          "type": "address"
        }
      ],
      "name": "OwnershipTransferred",
      "type": "event"
    },
    {
      "anonymous": false,
      "inputs": [
        {
          "indexed": true,
          "internalType": "address",
          "name": "from",
          "type": "address"
        },
        {
          "indexed": true,
          "internalType": "address",
          "name": "to",
          "type": "address"
        },
        {
          "indexed": false,
          "internalType": "uint256",
          "name": "value",
          "type": "uint256"
        }
      ],
      "name": "Transfer",
      "type": "event"
    },
    {
      "inputs": [],
      "name": "INITIAL_ETH_DEPOSIT",
      "outputs": [
        {
          "internalType": "uint256",
          "name": "",
          "type": "uint256"
        }
      ],
      "stateMutability": "view",
      "type": "function"
    },
    {
      "inputs": [],
      "name": "YIELD_DURATION",
      "outputs": [
        {
          "internalType": "uint256",
          "name": "",
          "type": "uint256"
        }
      ],
      "stateMutability": "view",
      "type": "function"
    },
    {
      "inputs": [
        {
          "internalType": "address",
          "name": "owner",
          "type": "address"
        },
        {
          "internalType": "address",
          "name": "spender",
          "type": "address"
        }
      ],
      "name": "allowance",
      "outputs": [
        {
          "internalType": "uint256",
          "name": "",
          "type": "uint256"
        }
      ],
      "stateMutability": "view",
      "type": "function"
    },
    {
      "inputs": [
        {
          "internalType": "address",
          "name": "spender",
          "type": "address"
        },
        {
          "internalType": "uint256",
          "name": "value",
          "type": "uint256"
        }
      ],
      "name": "approve",
      "outputs": [
        {
          "internalType": "bool",
          "name": "",
          "type": "bool"
        }
      ],
      "stateMutability": "nonpayable",
      "type": "function"
    },
    {
      "inputs": [
        {
          "internalType": "address",
          "name": "account",
          "type": "address"
        }
      ],
      "name": "balanceOf",
      "outputs": [
        {
          "internalType": "uint256",
          "name": "",
          "type": "uint256"
        }
      ],
      "stateMutability": "view",
      "type": "function"
    },
    {
      "inputs": [
        {
          "internalType": "address",
          "name": "participant",
          "type": "address"
        }
      ],
      "name": "calculateYield",
      "outputs": [
        {
          "internalType": "uint256",
          "name": "",
          "type": "uint256"
        }
      ],
      "stateMutability": "view",
      "type": "function"
    },
    {
      "inputs": [],
      "name": "decimals",
      "outputs": [
        {
          "internalType": "uint8",
          "name": "",
          "type": "uint8"
        }
      ],
      "stateMutability": "view",
      "type": "function"
    },
    {
      "inputs": [
        {
          "internalType": "address",
          "name": "participant",
          "type": "address"
        },
        {
          "internalType": "uint256",
          "name": "amount",
          "type": "uint256"
        }
      ],
      "name": "depositTokens",
      "outputs": [],
      "stateMutability": "nonpayable",
      "type": "function"
    },
    {
      "inputs": [],
      "name": "distributeFinal",
      "outputs": [],
      "stateMutability": "nonpayable",
      "type": "function"
    },
    {
      "inputs": [],
      "name": "endTimestamp",
      "outputs": [
        {
          "internalType": "uint256",
          "name": "",
          "type": "uint256"
        }
      ],
      "stateMutability": "view",
      "type": "function"
    },
    {
      "inputs": [
        {
          "internalType": "address",
          "name": "to",
          "type": "address"
        },
        {
          "internalType": "uint256",
          "name": "amount",
          "type": "uint256"
        }
      ],
      "name": "mint",
      "outputs": [],
      "stateMutability": "nonpayable",
      "type": "function"
    },
    {
      "inputs": [],
      "name": "name",
      "outputs": [
        {
          "internalType": "string",
          "name": "",
          "type": "string"
        }
      ],
      "stateMutability": "view",
      "type": "function"
    },
    {
      "inputs": [],
      "name": "owner",
      "outputs": [
        {
          "internalType": "address",
          "name": "",
          "type": "address"
        }
      ],
      "stateMutability": "view",
      "type": "function"
    },
    {
      "inputs": [],
      "name": "renounceOwnership",
      "outputs": [],
      "stateMutability": "nonpayable",
      "type": "function"
    },
    {
      "inputs": [],
      "name": "startTimestamp",
      "outputs": [
        {
          "internalType": "uint256",
          "name": "",
          "type": "uint256"
        }
      ],
      "stateMutability": "view",
      "type": "function"
    },
    {
      "inputs": [],
      "name": "symbol",
      "outputs": [
        {
          "internalType": "string",
          "name": "",
          "type": "string"
        }
      ],
      "stateMutability": "view",
      "type": "function"
    },
    {
      "inputs": [],
      "name": "totalSupply",
      "outputs": [
        {
          "internalType": "uint256",
          "name": "",
          "type": "uint256"
        }
      ],
      "stateMutability": "view",
      "type": "function"
    },
    {
      "inputs": [
        {
          "internalType": "address",
          "name": "to",
          "type": "address"
        },
        {
          "internalType": "uint256",
          "name": "value",
          "type": "uint256"
        }
      ],
      "name": "transfer",
      "outputs": [
        {
          "internalType": "bool",
          "name": "",
          "type": "bool"
        }
      ],
      "stateMutability": "nonpayable",
      "type": "function"
    },
    {
      "inputs": [
        {
          "internalType": "address",
          "name": "from",
          "type": "address"
        },
        {
          "internalType": "address",
          "name": "to",
          "type": "address"
        },
        {
          "internalType": "uint256",
          "name": "value",
          "type": "uint256"
        }
      ],
      "name": "transferFrom",
      "outputs": [
        {
          "internalType": "bool",
          "name": "",
          "type": "bool"
        }
      ],
      "stateMutability": "nonpayable",
      "type": "function"
    },
    {
      "inputs": [
        {
          "internalType": "address",
          "name": "newOwner",
          "type": "address"
        }
      ],
      "name": "transferOwnership",
      "outputs": [],
      "stateMutability": "nonpayable",
      "type": "function"
    },
    {
      "inputs": [
        {
          "internalType": "address",
          "name": "participant",
          "type": "address"
        }
      ],
      "name": "withdrawYield",
      "outputs": [],
      "stateMutability": "nonpayable",
      "type": "function"
    },
    {
      "inputs": [
        {
          "internalType": "address",
          "name": "",
          "type": "address"
        }
      ],
      "name": "yieldAmount",
      "outputs": [
        {
          "internalType": "uint256",
          "name": "",
          "type": "uint256"
        }
      ],
      "stateMutability": "view",
      "type": "function"
    },
    {
      "stateMutability": "payable",
      "type": "receive"
    }
  ],
  "bytecode": "0x608060405260405162002635380380620026358339818101604052810190620000299190620002ef565b806040518060400160405280601b81526020017f50726976617465205969656c642042656172696e6720546f6b656e00000000008152506040518060400160405280600481526020017f50594254000000000000000000000000000000000000000000000000000000008152508160039081620000a791906200059b565b508060049081620000b991906200059b565b505050600073ffffffffffffffffffffffffffffffffffffffff168173ffffffffffffffffffffffffffffffffffffffff1603620001315760006040517f1e4fbdf700000000000000000000000000000000000000000000000000000000815260040162000128919062000693565b60405180910390fd5b6200014281620001bf60201b60201c565b50670de0b6b3a7640000341462000190576040517f08c379a0000000000000000000000000000000000000000000000000000000008152600401620001879062000737565b60405180910390fd5b42600a8190555062278d00600a54620001aa919062000788565b600b81905550600060068190555050620007c3565b6000600560009054906101000a900473ffffffffffffffffffffffffffffffffffffffff16905081600560006101000a81548173ffffffffffffffffffffffffffffffffffffffff021916908373ffffffffffffffffffffffffffffffffffffffff1602179055508173ffffffffffffffffffffffffffffffffffffffff168173ffffffffffffffffffffffffffffffffffffffff167f8be0079c531659141344cd1fd0a4f28419497f9722a3daafe3b4186f6b6457e060405160405180910390a35050565b600080fd5b600073ffffffffffffffffffffffffffffffffffffffff82169050919050565b6000620002b7826200028a565b9050919050565b620002c981620002aa565b8114620002d557600080fd5b50565b600081519050620002e981620002be565b92915050565b60006020828403121562000308576200030762000285565b5b60006200031884828501620002d8565b91505092915050565b600081519050919050565b7f4e487b7100000000000000000000000000000000000000000000000000000000600052604160045260246000fd5b7f4e487b7100000000000000000000000000000000000000000000000000000000600052602260045260246000fd5b60006002820490506001821680620003a357607f821691505b602082108103620003b957620003b86200035b565b5b50919050565b60008190508160005260206000209050919050565b60006020601f8301049050919050565b600082821b905092915050565b600060088302620004237fffffffffffffffffffffffffffffffffffffffffffffffffffffffffffffffff82620003e4565b6200042f8683620003e4565b95508019841693508086168417925050509392505050565b6000819050919050565b6000819050919050565b60006200047c62000476620004708462000447565b62000451565b62000447565b9050919050565b6000819050919050565b62000498836200045b565b620004b0620004a78262000483565b848454620003f1565b825550505050565b600090565b620004c7620004b8565b620004d48184846200048d565b505050565b5b81811015620004fc57620004f0600082620004bd565b600181019050620004da565b5050565b601f8211156200054b576200051581620003bf565b6200052084620003d4565b8101602085101562000530578190505b620005486200053f85620003d4565b830182620004d9565b50505b505050565b600082821c905092915050565b6000620005706000198460080262000550565b1980831691505092915050565b60006200058b83836200055d565b9150826002028217905092915050565b620005a68262000321565b67ffffffffffffffff811115620005c257620005c16200032c565b5b620005ce82546200038a565b620005db82828562000500565b600060209050601f831160018114620006135760008415620005fe578287015190505b6200060a85826200057d565b8655506200067a565b601f1984166200062386620003bf565b60005b828110156200064d5784890151825560018201915060208501945060208101905062000626565b868310156200066d578489015162000669601f8916826200055d565b8355505b6001600288020188555050505b505050505050565b6200068d81620002aa565b82525050565b6000602082019050620006aa600083018462000682565b92915050565b600082825260208201905092915050565b7f496e697469616c20455448206465706f736974206d757374206265203120455460008201527f4800000000000000000000000000000000000000000000000000000000000000602082015250565b60006200071f602183620006b0565b91506200072c82620006c1565b604082019050919050565b60006020820190508181036000830152620007528162000710565b9050919050565b7f4e487b7100000000000000000000000000000000000000000000000000000000600052601160045260246000fd5b6000620007958262000447565b9150620007a28362000447565b9250828201905080821115620007bd57620007bc62000759565b5b92915050565b611e6280620007d36000396000f3fe6080604052600436106101395760003560e01c8063715018a6116100ab578063a9059cbb1161006f578063a9059cbb1461046d578063dd3b83df146104aa578063dd62ed3e146104d3578063e6fd48bc14610510578063f2fde38b1461053b578063f58bab4b146105645761018a565b8063715018a6146103985780638da5cb5b146103af57806393092c8f146103da57806395d89b4114610417578063a85adeab146104425761018a565b8063313ce567116100fd578063313ce5671461028a57806340c10f19146102b5578063549a4b32146102de578063567add64146102f557806366168bd71461033257806370a082311461035b5761018a565b806305985b441461018f57806306fdde03146101ba578063095ea7b3146101e557806318160ddd1461022257806323b872dd1461024d5761018a565b3661018a57670de0b6b3a76400003414610188576040517f08c379a000000000000000000000000000000000000000000000000000000000815260040161017f9061171a565b60405180910390fd5b005b600080fd5b34801561019b57600080fd5b506101a461058f565b6040516101b19190611753565b60405180910390f35b3480156101c657600080fd5b506101cf61059b565b6040516101dc91906117ed565b60405180910390f35b3480156101f157600080fd5b5061020c6004803603810190610207919061189e565b61062d565b60405161021991906118f9565b60405180910390f35b34801561022e57600080fd5b50610237610650565b6040516102449190611753565b60405180910390f35b34801561025957600080fd5b50610274600480360381019061026f9190611914565b61065a565b60405161028191906118f9565b60405180910390f35b34801561029657600080fd5b5061029f610689565b6040516102ac9190611983565b60405180910390f35b3480156102c157600080fd5b506102dc60048036038101906102d7919061189e565b610692565b005b3480156102ea57600080fd5b506102f3610724565b005b34801561030157600080fd5b5061031c6004803603810190610317919061199e565b6108b3565b6040516103299190611753565b60405180910390f35b34801561033e57600080fd5b506103596004803603810190610354919061189e565b61093f565b005b34801561036757600080fd5b50610382600480360381019061037d919061199e565b6109fa565b60405161038f9190611753565b60405180910390f35b3480156103a457600080fd5b506103ad610a42565b005b3480156103bb57600080fd5b506103c4610a56565b6040516103d191906119da565b60405180910390f35b3480156103e657600080fd5b5061040160048036038101906103fc919061199e565b610a80565b60405161040e9190611753565b60405180910390f35b34801561042357600080fd5b5061042c610a98565b60405161043991906117ed565b60405180910390f35b34801561044e57600080fd5b50610457610b2a565b6040516104649190611753565b60405180910390f35b34801561047957600080fd5b50610494600480360381019061048f919061189e565b610b30565b6040516104a191906118f9565b60405180910390f35b3480156104b657600080fd5b506104d160048036038101906104cc919061199e565b610b53565b005b3480156104df57600080fd5b506104fa60048036038101906104f591906119f5565b610db4565b6040516105079190611753565b60405180910390f35b34801561051c57600080fd5b50610525610e3b565b6040516105329190611753565b60405180910390f35b34801561054757600080fd5b50610562600480360381019061055d919061199e565b610e41565b005b34801561057057600080fd5b50610579610ec7565b6040516105869190611753565b60405180910390f35b670de0b6b3a764000081565b6060600380546105aa90611a64565b80601f01602080910402602001604051908101604052809291908181526020018280546105d690611a64565b80156106235780601f106105f857610100808354040283529160200191610623565b820191906000526020600020905b81548152906001019060200180831161060657829003601f168201915b5050505050905090565b600080610638610ece565b9050610645818585610ed6565b600191505092915050565b6000600254905090565b600080610665610ece565b9050610672858285610ee8565b61067d858585610f7c565b60019150509392505050565b60006012905090565b61069a611070565b6106a482826110f7565b80600660008282546106b69190611ac4565b92505081905550600c829080600181540180825580915050600190039060005260206000200160009091909190916101000a81548173ffffffffffffffffffffffffffffffffffffffff021916908373ffffffffffffffffffffffffffffffffffffffff1602179055505050565b600b54421015610769576040517f08c379a000000000000000000000000000000000000000000000000000000000815260040161076090611b44565b60405180910390fd5b60005b600c805490508110156108b0576000600c828154811061078f5761078e611b64565b5b9060005260206000200160009054906101000a900473ffffffffffffffffffffffffffffffffffffffff1690506000600860008373ffffffffffffffffffffffffffffffffffffffff1673ffffffffffffffffffffffffffffffffffffffff16815260200190815260200160002054905080600960008473ffffffffffffffffffffffffffffffffffffffff1673ffffffffffffffffffffffffffffffffffffffff168152602001908152602001600020600082825461084f9190611ac4565b925050819055506000600960008473ffffffffffffffffffffffffffffffffffffffff1673ffffffffffffffffffffffffffffffffffffffff16815260200190815260200160002081905550505080806108a890611b93565b91505061076c565b50565b600080600a54426108c49190611bdb565b905062278d008111156108d85762278d0090505b6000600760008573ffffffffffffffffffffffffffffffffffffffff1673ffffffffffffffffffffffffffffffffffffffff16815260200190815260200160002054905062278d00828261092c9190611c0f565b6109369190611c80565b92505050919050565b6000811180156109575750610953826109fa565b8111155b610996576040517f08c379a000000000000000000000000000000000000000000000000000000000815260040161098d90611cfd565b60405180910390fd5b80600760008473ffffffffffffffffffffffffffffffffffffffff1673ffffffffffffffffffffffffffffffffffffffff16815260200190815260200160002060008282546109e59190611ac4565b925050819055506109f68282611179565b5050565b60008060008373ffffffffffffffffffffffffffffffffffffffff1673ffffffffffffffffffffffffffffffffffffffff168152602001908152602001600020549050919050565b610a4a611070565b610a5460006111fb565b565b6000600560009054906101000a900473ffffffffffffffffffffffffffffffffffffffff16905090565b60096020528060005260406000206000915090505481565b606060048054610aa790611a64565b80601f0160208091040260200160405190810160405280929190818152602001828054610ad390611a64565b8015610b205780601f10610af557610100808354040283529160200191610b20565b820191906000526020600020905b815481529060010190602001808311610b0357829003601f168201915b5050505050905090565b600b5481565b600080610b3b610ece565b9050610b48818585610f7c565b600191505092915050565b6000600760008373ffffffffffffffffffffffffffffffffffffffff1673ffffffffffffffffffffffffffffffffffffffff1681526020019081526020016000205411610bd5576040517f08c379a0000000000000000000000000000000000000000000000000000000008152600401610bcc90611d69565b60405180910390fd5b6000600960008373ffffffffffffffffffffffffffffffffffffffff1673ffffffffffffffffffffffffffffffffffffffff1681526020019081526020016000205414610c57576040517f08c379a0000000000000000000000000000000000000000000000000000000008152600401610c4e90611dd5565b60405180910390fd5b6000610c62826108b3565b905080600960008473ffffffffffffffffffffffffffffffffffffffff1673ffffffffffffffffffffffffffffffffffffffff168152602001908152602001600020819055508060066000828254610cba9190611ac4565b9250508190555080600860008473ffffffffffffffffffffffffffffffffffffffff1673ffffffffffffffffffffffffffffffffffffffff1681526020019081526020016000206000828254610d109190611ac4565b925050819055506000600760008473ffffffffffffffffffffffffffffffffffffffff1673ffffffffffffffffffffffffffffffffffffffff16815260200190815260200160002081905550610db08282600760008673ffffffffffffffffffffffffffffffffffffffff1673ffffffffffffffffffffffffffffffffffffffff16815260200190815260200160002054610dab9190611ac4565b6110f7565b5050565b6000600160008473ffffffffffffffffffffffffffffffffffffffff1673ffffffffffffffffffffffffffffffffffffffff16815260200190815260200160002060008373ffffffffffffffffffffffffffffffffffffffff1673ffffffffffffffffffffffffffffffffffffffff16815260200190815260200160002054905092915050565b600a5481565b610e49611070565b600073ffffffffffffffffffffffffffffffffffffffff168173ffffffffffffffffffffffffffffffffffffffff1603610ebb5760006040517f1e4fbdf7000000000000000000000000000000000000000000000000000000008152600401610eb291906119da565b60405180910390fd5b610ec4816111fb565b50565b62278d0081565b600033905090565b610ee383838360016112c1565b505050565b6000610ef48484610db4565b90507fffffffffffffffffffffffffffffffffffffffffffffffffffffffffffffffff8114610f765781811015610f66578281836040517ffb8f41b2000000000000000000000000000000000000000000000000000000008152600401610f5d93929190611df5565b60405180910390fd5b610f75848484840360006112c1565b5b50505050565b600073ffffffffffffffffffffffffffffffffffffffff168373ffffffffffffffffffffffffffffffffffffffff1603610fee5760006040517f96c6fd1e000000000000000000000000000000000000000000000000000000008152600401610fe591906119da565b60405180910390fd5b600073ffffffffffffffffffffffffffffffffffffffff168273ffffffffffffffffffffffffffffffffffffffff16036110605760006040517fec442f0500000000000000000000000000000000000000000000000000000000815260040161105791906119da565b60405180910390fd5b61106b838383611498565b505050565b611078610ece565b73ffffffffffffffffffffffffffffffffffffffff16611096610a56565b73ffffffffffffffffffffffffffffffffffffffff16146110f5576110b9610ece565b6040517f118cdaa70000000000000000000000000000000000000000000000000000000081526004016110ec91906119da565b60405180910390fd5b565b600073ffffffffffffffffffffffffffffffffffffffff168273ffffffffffffffffffffffffffffffffffffffff16036111695760006040517fec442f0500000000000000000000000000000000000000000000000000000000815260040161116091906119da565b60405180910390fd5b61117560008383611498565b5050565b600073ffffffffffffffffffffffffffffffffffffffff168273ffffffffffffffffffffffffffffffffffffffff16036111eb5760006040517f96c6fd1e0000000000000000000000000000000000000000000000000000000081526004016111e291906119da565b60405180910390fd5b6111f782600083611498565b5050565b6000600560009054906101000a900473ffffffffffffffffffffffffffffffffffffffff16905081600560006101000a81548173ffffffffffffffffffffffffffffffffffffffff021916908373ffffffffffffffffffffffffffffffffffffffff1602179055508173ffffffffffffffffffffffffffffffffffffffff168173ffffffffffffffffffffffffffffffffffffffff167f8be0079c531659141344cd1fd0a4f28419497f9722a3daafe3b4186f6b6457e060405160405180910390a35050565b600073ffffffffffffffffffffffffffffffffffffffff168473ffffffffffffffffffffffffffffffffffffffff16036113335760006040517fe602df0500000000000000000000000000000000000000000000000000000000815260040161132a91906119da565b60405180910390fd5b600073ffffffffffffffffffffffffffffffffffffffff168373ffffffffffffffffffffffffffffffffffffffff16036113a55760006040517f94280d6200000000000000000000000000000000000000000000000000000000815260040161139c91906119da565b60405180910390fd5b81600160008673ffffffffffffffffffffffffffffffffffffffff1673ffffffffffffffffffffffffffffffffffffffff16815260200190815260200160002060008573ffffffffffffffffffffffffffffffffffffffff1673ffffffffffffffffffffffffffffffffffffffff168152602001908152602001600020819055508015611492578273ffffffffffffffffffffffffffffffffffffffff168473ffffffffffffffffffffffffffffffffffffffff167f8c5be1e5ebec7d5bd14f71427d1e84f3dd0314c0f7b2291e5b200ac8c7c3b925846040516114899190611753565b60405180910390a35b50505050565b600073ffffffffffffffffffffffffffffffffffffffff168373ffffffffffffffffffffffffffffffffffffffff16036114ea5780600260008282546114de9190611ac4565b925050819055506115bd565b60008060008573ffffffffffffffffffffffffffffffffffffffff1673ffffffffffffffffffffffffffffffffffffffff16815260200190815260200160002054905081811015611576578381836040517fe450d38c00000000000000000000000000000000000000000000000000000000815260040161156d93929190611df5565b60405180910390fd5b8181036000808673ffffffffffffffffffffffffffffffffffffffff1673ffffffffffffffffffffffffffffffffffffffff16815260200190815260200160002081905550505b600073ffffffffffffffffffffffffffffffffffffffff168273ffffffffffffffffffffffffffffffffffffffff16036116065780600260008282540392505081905550611653565b806000808473ffffffffffffffffffffffffffffffffffffffff1673ffffffffffffffffffffffffffffffffffffffff168152602001908152602001600020600082825401925050819055505b8173ffffffffffffffffffffffffffffffffffffffff168373ffffffffffffffffffffffffffffffffffffffff167fddf252ad1be2c89b69c2b068fc378daa952ba7f163c4a11628f55a4df523b3ef836040516116b09190611753565b60405180910390a3505050565b600082825260208201905092915050565b7f4d7573742073656e642065786163746c79203120455448000000000000000000600082015250565b60006117046017836116bd565b915061170f826116ce565b602082019050919050565b60006020820190508181036000830152611733816116f7565b9050919050565b6000819050919050565b61174d8161173a565b82525050565b60006020820190506117686000830184611744565b92915050565b600081519050919050565b60005b8381101561179757808201518184015260208101905061177c565b60008484015250505050565b6000601f19601f8301169050919050565b60006117bf8261176e565b6117c981856116bd565b93506117d9818560208601611779565b6117e2816117a3565b840191505092915050565b6000602082019050818103600083015261180781846117b4565b905092915050565b600080fd5b600073ffffffffffffffffffffffffffffffffffffffff82169050919050565b600061183f82611814565b9050919050565b61184f81611834565b811461185a57600080fd5b50565b60008135905061186c81611846565b92915050565b61187b8161173a565b811461188657600080fd5b50565b60008135905061189881611872565b92915050565b600080604083850312156118b5576118b461180f565b5b60006118c38582860161185d565b92505060206118d485828601611889565b9150509250929050565b60008115159050919050565b6118f3816118de565b82525050565b600060208201905061190e60008301846118ea565b92915050565b60008060006060848603121561192d5761192c61180f565b5b600061193b8682870161185d565b935050602061194c8682870161185d565b925050604061195d86828701611889565b9150509250925092565b600060ff82169050919050565b61197d81611967565b82525050565b60006020820190506119986000830184611974565b92915050565b6000602082840312156119b4576119b361180f565b5b60006119c28482850161185d565b91505092915050565b6119d481611834565b82525050565b60006020820190506119ef60008301846119cb565b92915050565b60008060408385031215611a0c57611a0b61180f565b5b6000611a1a8582860161185d565b9250506020611a2b8582860161185d565b9150509250929050565b7f4e487b7100000000000000000000000000000000000000000000000000000000600052602260045260246000fd5b60006002820490506001821680611a7c57607f821691505b602082108103611a8f57611a8e611a35565b5b50919050565b7f4e487b7100000000000000000000000000000000000000000000000000000000600052601160045260246000fd5b6000611acf8261173a565b9150611ada8361173a565b9250828201905080821115611af257611af1611a95565b5b92915050565b7f5969656c6420706572696f64206e6f7420656e64656400000000000000000000600082015250565b6000611b2e6016836116bd565b9150611b3982611af8565b602082019050919050565b60006020820190508181036000830152611b5d81611b21565b9050919050565b7f4e487b7100000000000000000000000000000000000000000000000000000000600052603260045260246000fd5b6000611b9e8261173a565b91507fffffffffffffffffffffffffffffffffffffffffffffffffffffffffffffffff8203611bd057611bcf611a95565b5b600182019050919050565b6000611be68261173a565b9150611bf18361173a565b9250828203905081811115611c0957611c08611a95565b5b92915050565b6000611c1a8261173a565b9150611c258361173a565b9250828202611c338161173a565b91508282048414831517611c4a57611c49611a95565b5b5092915050565b7f4e487b7100000000000000000000000000000000000000000000000000000000600052601260045260246000fd5b6000611c8b8261173a565b9150611c968361173a565b925082611ca657611ca5611c51565b5b828204905092915050565b7f496e76616c696420616d6f756e74000000000000000000000000000000000000600082015250565b6000611ce7600e836116bd565b9150611cf282611cb1565b602082019050919050565b60006020820190508181036000830152611d1681611cda565b9050919050565b7f4e6f206465706f7369747320746f207769746864726177000000000000000000600082015250565b6000611d536017836116bd565b9150611d5e82611d1d565b602082019050919050565b60006020820190508181036000830152611d8281611d46565b9050919050565b7f416c72656164792077697468647261776e000000000000000000000000000000600082015250565b6000611dbf6011836116bd565b9150611dca82611d89565b602082019050919050565b60006020820190508181036000830152611dee81611db2565b9050919050565b6000606082019050611e0a60008301866119cb565b611e176020830185611744565b611e246040830184611744565b94935050505056fea2646970667358221220e618cede2dce8e5bb91ba884acdedc2e55e03e6a12fbb4b1ed87b17a708d963464736f6c63430008140033",
  "linkReferences": {},
  "deployedLinkReferences": {}
}