{
  "_format": "hh-sol-artifact-1",
  "contractName": "YieldBearingMerkleDistributor",
  "sourceName": "contracts/YieldBearingMerkleDistributor.sol",
  "abi": [
    {
      "inputs": [
        {
          "internalType": "address",
          "name": "token_",
          "type": "address"
        },
        {
          "internalType": "bytes32",
          "name": "merkleRoot_",
          "type": "bytes32"
        },
        {
          "internalType": "uint256",
          "name": "dropAmount_",
          "type": "uint256"
        },
        {
          "internalType": "address",
          "name": "owner",
          "type": "address"
        }
      ],
      "stateMutability": "nonpayable",
      "type": "constructor"
    },
    {
      "inputs": [
        {
          "internalType": "address",
          "name": "target",
          "type": "address"
        }
      ],
      "name": "AddressEmptyCode",
      "type": "error"
    },
    {
      "inputs": [
        {
          "internalType": "address",
          "name": "account",
          "type": "address"
        }
      ],
      "name": "AddressInsufficientBalance",
      "type": "error"
    },
    {
      "inputs": [],
      "name": "FailedInnerCall",
      "type": "error"
    },
    {
      "inputs": [],
      "name": "InvalidProof",
      "type": "error"
    },
    {
      "inputs": [
        {
          "internalType": "address",
          "name": "owner",
          "type": "address"
        }
      ],
      "name": "OwnableInvalidOwner",
      "type": "error"
    },
    {
      "inputs": [
        {
          "internalType": "address",
          "name": "account",
          "type": "address"
        }
      ],
      "name": "OwnableUnauthorizedAccount",
      "type": "error"
    },
    {
      "inputs": [
        {
          "internalType": "address",
          "name": "token",
          "type": "address"
        }
      ],
      "name": "SafeERC20FailedOperation",
      "type": "error"
    },
    {
      "anonymous": false,
      "inputs": [
        {
          "indexed": true,
          "internalType": "address",
          "name": "account",
          "type": "address"
        },
        {
          "indexed": false,
          "internalType": "uint256",
          "name": "dropAmount",
          "type": "uint256"
        }
      ],
      "name": "Claimed",
      "type": "event"
    },
    {
      "anonymous": false,
      "inputs": [
        {
          "indexed": false,
          "internalType": "address[]",
          "name": "addresses",
          "type": "address[]"
        },
        {
          "indexed": false,
          "internalType": "uint256",
          "name": "amountPerAddress",
          "type": "uint256"
        }
      ],
      "name": "Distributed",
      "type": "event"
    },
    {
      "anonymous": false,
      "inputs": [
        {
          "indexed": true,
          "internalType": "address",
          "name": "previousOwner",
          "type": "address"
        },
        {
          "indexed": true,
          "internalType": "address",
          "name": "newOwner",
          "type": "address"
        }
      ],
      "name": "OwnershipTransferred",
      "type": "event"
    },
    {
      "inputs": [
        {
          "internalType": "bytes32[]",
          "name": "merkleProof",
          "type": "bytes32[]"
        }
      ],
      "name": "claim",
      "outputs": [],
      "stateMutability": "nonpayable",
      "type": "function"
    },
    {
      "inputs": [
        {
          "internalType": "address",
          "name": "",
          "type": "address"
        }
      ],
      "name": "claimed",
      "outputs": [
        {
          "internalType": "bool",
          "name": "",
          "type": "bool"
        }
      ],
      "stateMutability": "view",
      "type": "function"
    },
    {
      "inputs": [
        {
          "internalType": "address[]",
          "name": "addresses",
          "type": "address[]"
        }
      ],
      "name": "distributeTokens",
      "outputs": [],
      "stateMutability": "nonpayable",
      "type": "function"
    },
    {
      "inputs": [],
      "name": "dropAmount",
      "outputs": [
        {
          "internalType": "uint256",
          "name": "",
          "type": "uint256"
        }
      ],
      "stateMutability": "view",
      "type": "function"
    },
    {
      "inputs": [
        {
          "internalType": "address",
          "name": "account",
          "type": "address"
        }
      ],
      "name": "getEarnedYield",
      "outputs": [
        {
          "internalType": "uint256",
          "name": "",
          "type": "uint256"
        }
      ],
      "stateMutability": "view",
      "type": "function"
    },
    {
      "inputs": [],
      "name": "merkleRoot",
      "outputs": [
        {
          "internalType": "bytes32",
          "name": "",
          "type": "bytes32"
        }
      ],
      "stateMutability": "view",
      "type": "function"
    },
    {
      "inputs": [],
      "name": "owner",
      "outputs": [
        {
          "internalType": "address",
          "name": "",
          "type": "address"
        }
      ],
      "stateMutability": "view",
      "type": "function"
    },
    {
      "inputs": [
        {
          "internalType": "uint256",
          "name": "amount",
          "type": "uint256"
        }
      ],
      "name": "receiveYield",
      "outputs": [],
      "stateMutability": "nonpayable",
      "type": "function"
    },
    {
      "inputs": [],
      "name": "renounceOwnership",
      "outputs": [],
      "stateMutability": "nonpayable",
      "type": "function"
    },
    {
      "inputs": [],
      "name": "token",
      "outputs": [
        {
          "internalType": "address",
          "name": "",
          "type": "address"
        }
      ],
      "stateMutability": "view",
      "type": "function"
    },
    {
      "inputs": [],
      "name": "totalYieldReceived",
      "outputs": [
        {
          "internalType": "uint256",
          "name": "",
          "type": "uint256"
        }
      ],
      "stateMutability": "view",
      "type": "function"
    },
    {
      "inputs": [
        {
          "internalType": "address",
          "name": "newOwner",
          "type": "address"
        }
      ],
      "name": "transferOwnership",
      "outputs": [],
      "stateMutability": "nonpayable",
      "type": "function"
    },
    {
      "inputs": [
        {
          "internalType": "address",
          "name": "",
          "type": "address"
        }
      ],
      "name": "yieldEarned",
      "outputs": [
        {
          "internalType": "uint256",
          "name": "",
          "type": "uint256"
        }
      ],
      "stateMutability": "view",
      "type": "function"
    }
  ],
  "bytecode": "0x60c06040523480156200001157600080fd5b5060405162001e6238038062001e628339818101604052810190620000379190620002b0565b80600073ffffffffffffffffffffffffffffffffffffffff168173ffffffffffffffffffffffffffffffffffffffff1603620000ad5760006040517f1e4fbdf7000000000000000000000000000000000000000000000000000000008152600401620000a4919062000333565b60405180910390fd5b620000be816200010c60201b60201c565b508373ffffffffffffffffffffffffffffffffffffffff1660808173ffffffffffffffffffffffffffffffffffffffff16815250508260a08181525050816001819055505050505062000350565b60008060009054906101000a900473ffffffffffffffffffffffffffffffffffffffff169050816000806101000a81548173ffffffffffffffffffffffffffffffffffffffff021916908373ffffffffffffffffffffffffffffffffffffffff1602179055508173ffffffffffffffffffffffffffffffffffffffff168173ffffffffffffffffffffffffffffffffffffffff167f8be0079c531659141344cd1fd0a4f28419497f9722a3daafe3b4186f6b6457e060405160405180910390a35050565b600080fd5b600073ffffffffffffffffffffffffffffffffffffffff82169050919050565b60006200020282620001d5565b9050919050565b6200021481620001f5565b81146200022057600080fd5b50565b600081519050620002348162000209565b92915050565b6000819050919050565b6200024f816200023a565b81146200025b57600080fd5b50565b6000815190506200026f8162000244565b92915050565b6000819050919050565b6200028a8162000275565b81146200029657600080fd5b50565b600081519050620002aa816200027f565b92915050565b60008060008060808587031215620002cd57620002cc620001d0565b5b6000620002dd8782880162000223565b9450506020620002f0878288016200025e565b9350506040620003038782880162000299565b9250506060620003168782880162000223565b91505092959194509250565b6200032d81620001f5565b82525050565b60006020820190506200034a600083018462000322565b92915050565b60805160a051611abb620003a76000396000818161027c01526107340152600081816102c401528181610454015281816105880152818161080301528181610a5201528181610ae50152610baa0152611abb6000f3fe608060405234801561001057600080fd5b50600436106100cf5760003560e01c8063a8cb4d221161008c578063cb493bfe11610066578063cb493bfe146101da578063f2fde38b1461020a578063fa2d629814610226578063fc0c546a14610256576100cf565b8063a8cb4d2214610172578063b391c5081461018e578063c884ef83146101aa576100cf565b806305748be2146100d45780632eb4a7ab146100f25780634f42402a14610110578063715018a61461012e57806388951352146101385780638da5cb5b14610154575b600080fd5b6100dc610274565b6040516100e991906110b4565b60405180910390f35b6100fa61027a565b60405161010791906110e8565b60405180910390f35b61011861029e565b60405161012591906110b4565b60405180910390f35b6101366102a4565b005b610152600480360381019061014d91906112ce565b6102b8565b005b61015c61055d565b6040516101699190611326565b60405180910390f35b61018c6004803603810190610187919061136d565b610586565b005b6101a860048036038101906101a391906113f5565b610630565b005b6101c460048036038101906101bf9190611442565b610933565b6040516101d1919061148a565b60405180910390f35b6101f460048036038101906101ef9190611442565b610953565b60405161020191906110b4565b60405180910390f35b610224600480360381019061021f9190611442565b61096b565b005b610240600480360381019061023b9190611442565b6109f1565b60405161024d91906110b4565b60405180910390f35b61025e610ba8565b60405161026b9190611326565b60405180910390f35b60015481565b7f000000000000000000000000000000000000000000000000000000000000000081565b60025481565b6102ac610bcc565b6102b66000610c53565b565b6102c0610bcc565b60007f000000000000000000000000000000000000000000000000000000000000000073ffffffffffffffffffffffffffffffffffffffff166370a08231306040518263ffffffff1660e01b815260040161031b9190611326565b602060405180830381865afa158015610338573d6000803e3d6000fd5b505050506040513d601f19601f8201168201806040525081019061035c91906114ba565b9050600060028261036d9190611545565b9050600083518261037e9190611545565b905060005b845181101561051d57600360008683815181106103a3576103a2611576565b5b602002602001015173ffffffffffffffffffffffffffffffffffffffff1673ffffffffffffffffffffffffffffffffffffffff16815260200190815260200160002060009054906101000a900460ff1615610433576040517f08c379a000000000000000000000000000000000000000000000000000000000815260040161042a90611628565b60405180910390fd5b61049885828151811061044957610448611576565b5b6020026020010151837f000000000000000000000000000000000000000000000000000000000000000073ffffffffffffffffffffffffffffffffffffffff16610d179092919063ffffffff16565b6001600360008784815181106104b1576104b0611576565b5b602002602001015173ffffffffffffffffffffffffffffffffffffffff1673ffffffffffffffffffffffffffffffffffffffff16815260200190815260200160002060006101000a81548160ff021916908315150217905550808061051590611648565b915050610383565b507f1c13dba3da1b8477d60661ae7cf496d243cf0c714ca646b70314b211ee9f3da2848260405161054f92919061174e565b60405180910390a150505050565b60008060009054906101000a900473ffffffffffffffffffffffffffffffffffffffff16905090565b7f000000000000000000000000000000000000000000000000000000000000000073ffffffffffffffffffffffffffffffffffffffff163373ffffffffffffffffffffffffffffffffffffffff1614610614576040517f08c379a000000000000000000000000000000000000000000000000000000000815260040161060b906117f0565b60405180910390fd5b80600260008282546106269190611810565b9250508190555050565b6000339050600360008273ffffffffffffffffffffffffffffffffffffffff1673ffffffffffffffffffffffffffffffffffffffff16815260200190815260200160002060009054906101000a900460ff16156106c2576040517f08c379a00000000000000000000000000000000000000000000000000000000081526004016106b990611628565b60405180910390fd5b6000816040516020016106d5919061188c565b604051602081830303815290604052805190602001209050610759848480806020026020016040519081016040528093929190818152602001838360200280828437600081840152601f19601f820116905080830192505050505050507f000000000000000000000000000000000000000000000000000000000000000083610d96565b61078f576040517f09bde33900000000000000000000000000000000000000000000000000000000815260040160405180910390fd5b6001600360008473ffffffffffffffffffffffffffffffffffffffff1673ffffffffffffffffffffffffffffffffffffffff16815260200190815260200160002060006101000a81548160ff02191690831515021790555060006107f2836109f1565b6001546107ff9190611810565b90507f000000000000000000000000000000000000000000000000000000000000000073ffffffffffffffffffffffffffffffffffffffff1663a9059cbb84836040518363ffffffff1660e01b815260040161085c9291906118a7565b6020604051808303816000875af115801561087b573d6000803e3d6000fd5b505050506040513d601f19601f8201168201806040525081019061089f91906118fc565b6108de576040517f08c379a00000000000000000000000000000000000000000000000000000000081526004016108d59061199b565b60405180910390fd5b8273ffffffffffffffffffffffffffffffffffffffff167fd8138f8a3f377c5259ca548e70e4c2de94f129f5a11036a15b69513cba2b426a8260405161092491906110b4565b60405180910390a25050505050565b60036020528060005260406000206000915054906101000a900460ff1681565b60046020528060005260406000206000915090505481565b610973610bcc565b600073ffffffffffffffffffffffffffffffffffffffff168173ffffffffffffffffffffffffffffffffffffffff16036109e55760006040517f1e4fbdf70000000000000000000000000000000000000000000000000000000081526004016109dc9190611326565b60405180910390fd5b6109ee81610c53565b50565b6000600360008373ffffffffffffffffffffffffffffffffffffffff1673ffffffffffffffffffffffffffffffffffffffff16815260200190815260200160002060009054906101000a900460ff1615610a4e5760009050610ba3565b60007f000000000000000000000000000000000000000000000000000000000000000073ffffffffffffffffffffffffffffffffffffffff166318160ddd6040518163ffffffff1660e01b8152600401602060405180830381865afa158015610abb573d6000803e3d6000fd5b505050506040513d601f19601f82011682018060405250810190610adf91906114ba565b905060007f000000000000000000000000000000000000000000000000000000000000000073ffffffffffffffffffffffffffffffffffffffff166370a08231856040518263ffffffff1660e01b8152600401610b3c9190611326565b602060405180830381865afa158015610b59573d6000803e3d6000fd5b505050506040513d601f19601f82011682018060405250810190610b7d91906114ba565b905060008282600254610b9091906119bb565b610b9a9190611545565b90508093505050505b919050565b7f000000000000000000000000000000000000000000000000000000000000000081565b610bd4610dad565b73ffffffffffffffffffffffffffffffffffffffff16610bf261055d565b73ffffffffffffffffffffffffffffffffffffffff1614610c5157610c15610dad565b6040517f118cdaa7000000000000000000000000000000000000000000000000000000008152600401610c489190611326565b60405180910390fd5b565b60008060009054906101000a900473ffffffffffffffffffffffffffffffffffffffff169050816000806101000a81548173ffffffffffffffffffffffffffffffffffffffff021916908373ffffffffffffffffffffffffffffffffffffffff1602179055508173ffffffffffffffffffffffffffffffffffffffff168173ffffffffffffffffffffffffffffffffffffffff167f8be0079c531659141344cd1fd0a4f28419497f9722a3daafe3b4186f6b6457e060405160405180910390a35050565b610d91838473ffffffffffffffffffffffffffffffffffffffff1663a9059cbb8585604051602401610d4a9291906118a7565b604051602081830303815290604052915060e01b6020820180517bffffffffffffffffffffffffffffffffffffffffffffffffffffffff8381831617835250505050610db5565b505050565b600082610da38584610e4c565b1490509392505050565b600033905090565b6000610de0828473ffffffffffffffffffffffffffffffffffffffff16610ea290919063ffffffff16565b90506000815114158015610e05575080806020019051810190610e0391906118fc565b155b15610e4757826040517f5274afe7000000000000000000000000000000000000000000000000000000008152600401610e3e9190611326565b60405180910390fd5b505050565b60008082905060005b8451811015610e9757610e8282868381518110610e7557610e74611576565b5b6020026020010151610eb8565b91508080610e8f90611648565b915050610e55565b508091505092915050565b6060610eb083836000610ee3565b905092915050565b6000818310610ed057610ecb8284610fb0565b610edb565b610eda8383610fb0565b5b905092915050565b606081471015610f2a57306040517fcd786059000000000000000000000000000000000000000000000000000000008152600401610f219190611326565b60405180910390fd5b6000808573ffffffffffffffffffffffffffffffffffffffff168486604051610f539190611a6e565b60006040518083038185875af1925050503d8060008114610f90576040519150601f19603f3d011682016040523d82523d6000602084013e610f95565b606091505b5091509150610fa5868383610fc7565b925050509392505050565b600082600052816020526040600020905092915050565b606082610fdc57610fd782611056565b61104e565b60008251148015611004575060008473ffffffffffffffffffffffffffffffffffffffff163b145b1561104657836040517f9996b31500000000000000000000000000000000000000000000000000000000815260040161103d9190611326565b60405180910390fd5b81905061104f565b5b9392505050565b6000815111156110695780518082602001fd5b6040517f1425ea4200000000000000000000000000000000000000000000000000000000815260040160405180910390fd5b6000819050919050565b6110ae8161109b565b82525050565b60006020820190506110c960008301846110a5565b92915050565b6000819050919050565b6110e2816110cf565b82525050565b60006020820190506110fd60008301846110d9565b92915050565b6000604051905090565b600080fd5b600080fd5b600080fd5b6000601f19601f8301169050919050565b7f4e487b7100000000000000000000000000000000000000000000000000000000600052604160045260246000fd5b6111658261111c565b810181811067ffffffffffffffff821117156111845761118361112d565b5b80604052505050565b6000611197611103565b90506111a3828261115c565b919050565b600067ffffffffffffffff8211156111c3576111c261112d565b5b602082029050602081019050919050565b600080fd5b600073ffffffffffffffffffffffffffffffffffffffff82169050919050565b6000611204826111d9565b9050919050565b611214816111f9565b811461121f57600080fd5b50565b6000813590506112318161120b565b92915050565b600061124a611245846111a8565b61118d565b9050808382526020820190506020840283018581111561126d5761126c6111d4565b5b835b8181101561129657806112828882611222565b84526020840193505060208101905061126f565b5050509392505050565b600082601f8301126112b5576112b4611117565b5b81356112c5848260208601611237565b91505092915050565b6000602082840312156112e4576112e361110d565b5b600082013567ffffffffffffffff81111561130257611301611112565b5b61130e848285016112a0565b91505092915050565b611320816111f9565b82525050565b600060208201905061133b6000830184611317565b92915050565b61134a8161109b565b811461135557600080fd5b50565b60008135905061136781611341565b92915050565b6000602082840312156113835761138261110d565b5b600061139184828501611358565b91505092915050565b600080fd5b60008083601f8401126113b5576113b4611117565b5b8235905067ffffffffffffffff8111156113d2576113d161139a565b5b6020830191508360208202830111156113ee576113ed6111d4565b5b9250929050565b6000806020838503121561140c5761140b61110d565b5b600083013567ffffffffffffffff81111561142a57611429611112565b5b6114368582860161139f565b92509250509250929050565b6000602082840312156114585761145761110d565b5b600061146684828501611222565b91505092915050565b60008115159050919050565b6114848161146f565b82525050565b600060208201905061149f600083018461147b565b92915050565b6000815190506114b481611341565b92915050565b6000602082840312156114d0576114cf61110d565b5b60006114de848285016114a5565b91505092915050565b7f4e487b7100000000000000000000000000000000000000000000000000000000600052601260045260246000fd5b7f4e487b7100000000000000000000000000000000000000000000000000000000600052601160045260246000fd5b60006115508261109b565b915061155b8361109b565b92508261156b5761156a6114e7565b5b828204905092915050565b7f4e487b7100000000000000000000000000000000000000000000000000000000600052603260045260246000fd5b600082825260208201905092915050565b7f4d65726b6c654469737472696275746f723a204163636f756e7420616c72656160008201527f647920636c61696d656400000000000000000000000000000000000000000000602082015250565b6000611612602a836115a5565b915061161d826115b6565b604082019050919050565b6000602082019050818103600083015261164181611605565b9050919050565b60006116538261109b565b91507fffffffffffffffffffffffffffffffffffffffffffffffffffffffffffffffff820361168557611684611516565b5b600182019050919050565b600081519050919050565b600082825260208201905092915050565b6000819050602082019050919050565b6116c5816111f9565b82525050565b60006116d783836116bc565b60208301905092915050565b6000602082019050919050565b60006116fb82611690565b611705818561169b565b9350611710836116ac565b8060005b8381101561174157815161172888826116cb565b9750611733836116e3565b925050600181019050611714565b5085935050505092915050565b6000604082019050818103600083015261176881856116f0565b905061177760208301846110a5565b9392505050565b7f4f6e6c7920507269766174655969656c6442656172696e67455243323020636160008201527f6e2063616c6c20746869732066756e6374696f6e000000000000000000000000602082015250565b60006117da6034836115a5565b91506117e58261177e565b604082019050919050565b60006020820190508181036000830152611809816117cd565b9050919050565b600061181b8261109b565b91506118268361109b565b925082820190508082111561183e5761183d611516565b5b92915050565b60008160601b9050919050565b600061185c82611844565b9050919050565b600061186e82611851565b9050919050565b611886611881826111f9565b611863565b82525050565b60006118988284611875565b60148201915081905092915050565b60006040820190506118bc6000830185611317565b6118c960208301846110a5565b9392505050565b6118d98161146f565b81146118e457600080fd5b50565b6000815190506118f6816118d0565b92915050565b6000602082840312156119125761191161110d565b5b6000611920848285016118e7565b91505092915050565b7f4d65726b6c654469737472696275746f723a205472616e73666572206661696c60008201527f6564000000000000000000000000000000000000000000000000000000000000602082015250565b60006119856022836115a5565b915061199082611929565b604082019050919050565b600060208201905081810360008301526119b481611978565b9050919050565b60006119c68261109b565b91506119d18361109b565b92508282026119df8161109b565b915082820484148315176119f6576119f5611516565b5b5092915050565b600081519050919050565b600081905092915050565b60005b83811015611a31578082015181840152602081019050611a16565b60008484015250505050565b6000611a48826119fd565b611a528185611a08565b9350611a62818560208601611a13565b80840191505092915050565b6000611a7a8284611a3d565b91508190509291505056fea2646970667358221220b49774a00e696f85660a97d835ebab9e40255fca8a715f9c0da4643f44993ce164736f6c63430008140033",
  "linkReferences": {},
  "deployedLinkReferences": {}
}